:400000000080002011000000290900002909000008B5044B1A6803F53F5302331A6000F08BFC00BFFA46004010B5054C237833B9044B13B10448AFF300800123237010BD8C
:40004000B882FF1F0000000060200000084B10B51BB108490848AFF300800848036803B910BD074B002BFBD0BDE81040184700BF00000000BC82FF1F60200000C880FF1F20
:400080000000000008B5002000F0CEFF08BD00BF684620F007018D4619B572B6EFF311841E4B1B68DBB20F2B10D9103B23F0030202F1604202F564421168DB0003F0180389
:4000C000E0229A400A4022FA03F306E00F2B03D1134B1B681B0E00E0002383F31188114A136801331360012B01D101F017FE62B6FFF7C8FF72B684F3118801F08FF9094A5E
:400100001368013B13601BB901F011FE01F0D5FD62B6BDE819408546704700BF04ED00E020ED00E04083FF1F08B562B645F6BF52054B1A60054A136843F002031360002088
:4001400001F068FAFBE700BF14E000E010E000E008B500F0F9F9FCE708B572B600F0C8F901F04AFD01F04AFB01F03AFB62B608BD08B5FFF7F1FF032000F0E0F9134801F083
:4001800055FD01F0ABFA124A136843F00503136000F0E8F918B10F4801F048FD02E00E4801F044FD01221146002000F0BFFD022000F048FD032000F045FD042000F042FDFC
:4001C000012000F03FFD01F06BFA08BD6420000010E000E07C200000B020000008B501F045FD012802D1002001F0CCF908BD00BF684620F007018D4619B572B6EFF311848B
:400200001E4B1B68DBB20F2B10D9103B23F0030202F1604202F564421168DB0003F01803E0229A400A4022FA03F306E00F2B03D1134B1B681B0E00E0002383F31188114A88
:40024000136801331360012B01D101F067FD62B6FFF7C4FF72B684F3118801F0DFF8094A1368013B13601BB901F061FD01F025FD62B6BDE819408546704700BF04ED00E05D
:4002800020ED00E04083FF1F30B583B0224B9B681A68002A3BD0204A128802A820F8082D1B689847E8B9BDF80010ADF804101A4B9A681980002159600221997055699368F6
:4002C0002BB33DB923E0996855F8240000F052FF013400E00024104B9B681A699442F2D315E00D4B03229A709B68DD69DB6873B13DB90CE0D96855F8240000F03BFF0134A0
:4003000000E00024044B9B689A699442F2D3002000F034F903B030BDCC80FF1F00B583B000230193012000F0A5FF01A9032000F001FF019800F0D0FE019A0121014800F024
:4003400093F9EFE7E020000010B582B000240194062000F08FFF01A9022000F0EBFE019800F0BAFE019B13F0040F09D022460221064800F061F9013414F5807F00D90024F9
:40038000019A0121024800F06FF9E1E7EC200000FC20000008B5012000F02AF901F080F908BD00BF38B54FF00003184A5278022A01D1164B1B784FF00001DBB20BB94FF0F2
:4003C0000101134B9A68197000215960022159705569936873B13DB90CE0996855F8240000F0C8FE013400E00024094B9B681A699442F2D3032000F0C1F8054B5B78022B9B
:4004000003D1034883685B68984738BDD880FF1FF080FF1F30B583B04FF00001164B9B78022B07D1144B1B88ADF80430ADF800305BB200E00023002B00DD59000F4B9A68C9
:40044000197000215960022159705569936873B13DB90CE0996855F8240000F08BFE013400E00024054B9B681A699442F2D3012000F084F803B030BDCC80FF1FD880FF1FCC
:4004800038B500231946184A5278022A01D1164A1178154A5268B2F5FA7F00D20B46134A9168137000235360022353704D698B6873B13DB90CE0996855F8240000F05AFE5E
:4004C000013400E00024094B9B681A699442F2D3022000F053F8054B5B78022B03D1034883685B68984738BDD880FF1FE480FF1F08B501F021FA01F033FA002008BD00BF7D
:4005000070B506460D46002001F02EFA002001F037FA84B2012001F033FA80B2D4F5006400D50F3444F307143470D0F5006000D50F3040F307102870002070BD08B5002154
:4005400000F042FB002008BD08B5054B1B780F2B04D100F059FB0022014B1A70002008BD3383FF1F044B1B7803F0080303F0FF0003B10120704700BFC080FF1F012303FA29
:4005800000F0034A1378184310700020704700BF3383FF1F08B50378012B03D1012001F03BF902E0002001F037F9002008BD00BF08B5007810B901F0C9F801E001F0C6F8A9
:4005C000002008BD30B583B0054600248DF8074002A901F8024D0DF10700FFF791FF9DF907302B709DF806306B70204603B030BD104B5B68034413F1011F01D80D4A5360C5
:400600000C4B1B69034413F1011F01D8094A1361084BDB69034413F1011F01D8054AD361044B9B6A184410F1011F01D8014B9862704700BFCC80FF1FF8B506460F461546FD
:4006400000240DE006EBC4039A88B5FBF2F302FB13531BB956F83430002098470134A4B2BC42EFD30020F8BDF8B505460E461746002409E005EBC4035868384202D055F82C
:40068000343098470134A4B2B442F3D30020F8BDFEE700BFF0B40022174611E050F82760F3B226F0FF0608E001EB420511F812406D78A5550132013BDBB2002BF4D101371B
:4006C000242FEBD9F0BC704708B50A46002101F0BEFC08BD38B50E22284B1A801823284A13701925023215800232137040F2CF7102321180023213700222224B1A70082297
:400700004FF040231A70032103F5007319701E4B1B78DBB21D490B701D4B1A8041F25122023B1A8000240CE01A4B1B7803F0010343EA440404F003044FF4F07001F0A0FAEF
:40074000013D0DB1032CEFD115B90320FFF7A0FF114B4FF480721A8007221A7000220F490A704820023108701A700222033B1A700B4A137843F00703137038BD8040004018
:40078000824000400043004008010049A146004022420040254200400440004006400040A2430040F8B5164B1B78DBB2154E3478E4B2154F3D78EDB203F00701134A11705D
:4007C0001B090132137044F00303337045F003033B7003220E4B1A7040230E4A13700232137030220C4B1A70202203331A700A2000F0E0F93D7034704422084B1A70F8BDEE
:40080000CF010049F8460040F94600406E5800400D51004001590040205B00407658004008B501F009FC08BD38B572B600240CE02C4D630019194A0011462A44084691887A
:400840002858FFF741FF0134E4B2072CF0D926494FF09040FFF71EFF04212448FFF734FF042223492348FFF7DBFF234A137843F0020313701032137843F0020313701F4C3D
:40088000237843F040032370A2F58632513A137843F010031370082219491A48FFF7C0FF0A2219491948FFF7BBFF082218491948FFF7B6FF184A137843F008031370174D7B
:4008C00061232B70FFF706FF81232B700122144B1A70FFF767FF0E2221461248FFF7A0FF38BD00BFB02100009400004800760040D40700480876004003500140A043004002
:40090000B807004802510040C0070048C0510040CC07004822510040224300400048004004000840B043004008B501F059FB03680C2B00D1FEE7FEE708B5104E104D16E096
:4009400029686B68AC68002204E051F8040B43F8040B0432A242F8D1E868002203E0002143F8041B04328242F9D11035013E002EE6D101F03BFBFFF7D7FBFEE701000000A2
:400980006024000008B5114A114B1A60114A136843F40073136000230AE0032B03D80E4A52F8231000E00D490D4A42F8231001332F2BF2D90B4B1A780B4B1A70084A0B4B24
:4009C0001A60FFF731FF00F013F808BD0004FA050CED00E014ED00E000000000290900000080FF1FBC760040C080FF1F08ED00E00B4A7F2313708021517007E0DA0002F1D5
:400A0000804202F5F042013BDBB21370002BF5D1DB0003F1804303F5F04300221A707047FC80FF1F172815D831B103010A495A5C42F020025A5405E0030107495A5C02F0D6
:400A4000DF025A540001044A835C43F00103835400207047012070471070004017280CD80001074BC1180A7942F004020A71C25C42F00102C254002070470120704700BFE0
:400A80001070004017280BD80001064A835C03F0F103490001F00E011943815400207047012070471070004041F6FF73994201D14FF4005141F6FF739A4201D14FF400527E
:400AC000172808D8C00000F1804000F5EC408180C280002070470120704700BF172805D8034B03EB0010417200207047012070471070004017281BD810B4C00000F180449F
:400B000004F5EC44D201D2B201F07F01114321709DF804201201D2B203F00F03134363709DF8083003F00F03A3700020E07001E00120704710BC704710B501F0A9F80A4B24
:400B40005B78182B0BD9084A1478013B5370E30003F1804303F5F0431B78137000E0FF2401F09AF8204610BDFC80FF1F10F0800F0CD111F4704F0BD1C00000F1804000F5FE
:400B8000F04001808270C37000207047012070470120704710F0800F08D1C00000F1804000F5F0408180C280002070470120704701BE704708B5034B1B7A00FB03F001F0F3
:400BC0005FF808BD0481FF1F0E4B1A7802F0FC0200F00300104318701A7842F080021A701A7802F07F021A7049011A7801F0600102F09F02114319701A7842F010021A7030
:400C0000704700BF834300400122014B1A7070478443004038B504460D46072902D90020FFF7C6FF1F2C02D90020FFF7C1FF04F01F0000F1604000F564406D01EDB2057056
:400C400038BD00BF38B5EFF3108572B604284ED82D4B53F82030002B4BD02B4A013B42F820302A4B53F82030032B07D10222274B43F820200022264B43F8202000F03EFCEF
:400C8000244B1B68002B36D1234B1C6800F014FCB0F1FF3F31D0214B53F82020204B1B689A422CD9B4F1FF3F03D00221174A42F824101C4A52F820201343194A1360002292
:400CC000124B43F8202000F0B3FB174B53F820304BB10024144B43F8204040F0004001F02FF820460CE001F02BF8002008E0032006E0042004E0002002E0002000E000203E
:400D000085F3108838BD00BF5C81FF1F0882FF1FFC82FF1F4083FF1FF081FF1F682300001883FF1F48230000D482FF1FF8B5EFF3108472B628BB00EB4005AB00184DEB586C
:400D400003EB4306B500174E75598D421BD34AB103EB43039E00134B1E44B3689A4214D3954214D3A9B103010F4DEB589BB90301EE180127EF507260013900F087F8002011
:400D80000AE0032008E0082006E0082004E0082002E0082000E0072084F31088F8BD00BF002300001423000070A3FF1F18B108B5C368984708BD704708B508B1406800E0D3
:400DC0000020042816D80C4B53F8203093B10A4A013B42F82030094B53F82030032B07D10222064B43F820200022054B43F8202000F084FB08BD00BF5C81FF1F0882FF1F01
:400E0000FC82FF1F18B1034640689B6801E00023184604281DD80F4A52F82020CAB10E4A52F82010032914D010B50C4C54F820201A4344F820200A4A52F82020134207D00A
:400E4000012905D10222044B43F8202000F056FB10BD7047202300000882FF1FFC82FF1FE882FF1F80B108B50378012B06D013B1032B06D008BDFFF79FFF08BDFFF7C2FFA8
:400E800008BDFFF793FF08BD704700BF30B400EB40029300214AD258214B03EBC2035C68B4F1FF3F04D11E4B03EBC20250602DE01C4B03EB04139B6899420AD2184D05EB83
:400EC000C2025060174A02EB04125B1A93601DE01C46144B03EB04139A68891ADB68B3F1FF3F05D00F4A02EB031292689142EFD2B3F1FF3F05D00B4A02EB031295686D1AD5
:400F00009560084A02EB0414E0601C46054B03EB00108160C46030BC704700BF002300001881FF1F70A3FF1F38B5394A02EBC0035C6852F83030013342F8303000EB40017B
:400F40008A0034498A58934203D90022304B43F83020B4F1FF3F59D02F4B03EB04139B68002B4ED1214600E019462B4B03EB0113DB68B3F1FF3F05D0274A02EB0312926852
:400F8000002AF1D0244A02EB01114FF0FF32CA601F4A02EBC0004360B3F1FF3F07D01E4A02EB03139A68013A9A6000E02C4604EB44029300194A13441B7A7BB904EB440259
:400FC0009300164A13445A68154B53F8223003EB83039A0013481044FFF744FF0E4B03EB0413DD68596821B101392046FFF74EFF03E024010022084B1A51B5F1FF3FD5D167
:4010000038BD054A02EB0414013BA36038BD00BF1881FF1F1423000070A3FF1F0023000010230000EC22000038B5EFF3108572B6002838D1FFF778FF204B1B68002B34D1A9
:401040001F4B1C6800F038FAB0F1FF3F2FD01D4B53F820201C4B1B689A422AD9B4F1FF3F03D00221194A42F82410194A52F820201343154A13600022144B43F8202000F01B
:40108000D7F9144B53F820304BB10024114B43F8204040F0004000F053FE20460AE000F04FFE002006E0032004E0002002E0002000E0002085F3108838BD00BF4083FF1F3D
:4010C000F081FF1F682300001883FF1F0882FF1F48230000D482FF1FEFF3108372B6114A1168114A126882B9B1F1FF3F0FD00F4A52F821206AB110B40D4C54F8212022EAA1
:40110000000044F82100002007E0022002E0022000E0012083F31088704783F3108810BC704700BFF081FF1F4083FF1F20230000FC82FF1F04280FD80B4B53F820306BB1A0
:401140000A4B53F82030032B0AD059B1084B53F820300B60002070470320704701207047072070470E207047202300000882FF1FFC82FF1F38B5EFF3108472B6042853D85F
:40118000324B53F82030002B50D0314B53F82030032B4DD02F4D55F820200A4345F820202D4A52F82020114244D0012B44D10222274B43F8202000F0A1F9284B1B68002B32
:4011C0003CD1274B1D6800F077F9B0F1FF3F37D0244B53F82020244B1B689A4232D9B5F1FF3F03D002211A4A42F825101F4A52F8202013431C4A13600022154B43F8202006
:4012000000F016F91A4B53F820304BB10025184B43F8205040F0004000F092FD284612E000F08EFD00200EE003200CE001200AE0072008E0002006E0002004E0002002E073
:40124000002000E0002084F3108838BD202300000882FF1FFC82FF1FE882FF1F4083FF1FF081FF1F682300001883FF1F48230000D482FF1F38B5EFF3108472B6364B1D6817
:40128000364B1B68002B5DD1B5F1FF3F5CD0344B53F82530002B59D0324B53F82530034256D1314B43F825000122304B43F825202F4B53F825002F490B6823EA00030B607B
:4012C0002D4B43F825202D4B53F82520224B1A6000F0F2F8B0F1FF3F06D0294B53F82020244B1B689A420DD81B4B1868B0F1FF3F03D000221D4B43F8202040F0004000F0C9
:401300001FFD1AE00021194A42F82010184A52F820201343174A136000F08AF8164B53F8203043B10022144B43F8202040F0004000F006FD01E000F003FD00200A4B43F851
:40134000250006E0022004E0022002E0012000E0002084F3108838BDF081FF1F4083FF1F20230000FC82FF1FE882FF1F0882FF1F482300001883FF1FD482FF1FF481FF1F89
:401380006823000008B500F053F8084B53F8203043B10022054B43F8202040F00040044B186008BD024B186008BD00BFD482FF1F4483FF1F10B500F07FF8124B1B68B0F190
:4013C000FF3F1AD0104A52F82010104A1268914213D9B3F1FF3F03D002240D4941F8234000210B4B43F820100A4B53F820301A43064B1A60FFF7C6FF10BD43F00043064A49
:40140000136010BDF081FF1F682300001883FF1F0882FF1F482300004483FF1F034B1B6813B10022014B1A60704700BF3483FF1FF0B4184B19880B0A174AD356B3F1FF3FB0
:4014400001D1535601E008335BB2144D55F82320134850F82200134E56F8224045F82340114D2F6846F822702A60B4F1FF3F09D10E4A42F82340012202FA03F321EA03013C
:40148000044B19800A4B19680A4A42F820101860F0BC70471483FF1FE0210000B081FF1F48A3FF1F3481FF1F1083FF1F7081FF1FF081FF1FF481FF1F0C4B1A88130A0C49A7
:4014C000CB56B3F1FF3F01D18B5601E008335BB2B3F1FF3F06D0074A52F82320064B53F8220070474FF0FF30704700BF1483FF1FE0210000B081FF1F48A3FF1F30B4144BCD
:4015000053F82020134C2368134951F823502560124C44F823004FF0FF3441F82340104951F82210A1420AD10E4951F820400E480188214301800D4941F8223002E0064867
:4015400040F82130064941F8223030BC704700BF4881FF1F1083FF1F3481FF1F48A3FF1F7081FF1F682300001483FF1FB081FF1F0022014B1A60FEE73C83FF1F08B5FFF737
:40158000F7FF00BF08B572B6FFF7F8FF10B150F8210070474FF0FF30704700BF0122014B1A60FEE73C83FF1F70B50546124B53F8306000241CE0104B03EBC5032146586834
:4015C000FFF7E4FF0D4A52F82030013B42F820300B4B53F82030032B07D10222084B43F820200022074B43F82020FFF787FF0134B442E0D370BD00BFE02200005C81FF1F40
:401600000882FF1FFC82FF1F18B908B5FFF7CCFF08BD7047194B1A4ADA621A4A9A631A4ADA63EFF3108272B6184B1B6813BB10B5044600F053F8164B1C600122134B1A6023
:401640002046FFF7E1FFFFF737FFB0F1FF3F0ED0104B53F82030104A11680B43136000220E4B43F82020FFF7E3FE00F069FB62B6FFF794FF82F31088072070470080FF1F70
:40168000011D0000C51C0000910000003C83FF1F80A3FF1F482300001883FF1F0882FF1F08B5EFF3108272B6094B1968094B1B6833B94FF0FF30084B43F82100002000E0A2
:4016C000022010B9084600F094FB82F3108808BDF081FF1F4083FF1F2081FF1F38B50D4B1D68EFF3108472B600F0DAFA0A4A136843F07F431360094B2B6502210420FFF7AD
:4017000089FA074A136843F01003136084F3108838BD00BF08ED00E020ED00E0F101000000E100E0024A137843F08003137070477D640040014B1870704700BF0D64004086
:40174000014B1870704700BF4D640040014B1870704700BF2D640040014B1870704700BF8D640040014B1878704700BF6D640040014B1878704700BF5D64004008B501E044
:40178000FFF7F6FFFFF7EEFF10F0100FF8D108BD10B5114A137803F0C00343F0090313700E4C237843F001032370FF20FFF7C2FFFF20FFF7C5FF7F20FFF7C8FF0020FFF7AB
:4017C000CBFF00F065FA237843F01003237000F063FAFFF7D3FF10BD7D6400409D64004008B5054B1B7823B9FFF7D2FF0122024B1A70FFF797FF08BD2083FF1F054A1378EF
:4018000043F0040313701032137843F004031370704700BFA2430040044A137803F0BF03800100F040001843107070470051004010B541F6FF734FF480420121022000F0BD
:4018400061F9084C207041F6FF731A460121042000F076F96070044800F090F9002000F093F910BD2483FF1F9D19000070B52C4C2078FFF7F3F86078FFF7F0F8294B1B7830
:40188000FF2B03D1FFF758F9264B1870254D2878062302460421FFF769F9214E341DA4B2224645F6A0312878FFF774F929783078FFF714F96B78FF2B02D1FFF73DF968702D
:4018C000184D6878072302460421FFF74FF9164A92B221466878FFF75DF9114C69786078FFF7FCF801212078FFF79CF801216078FFF798F800F0CCF90C4A137843F02003E7
:40190000137000F0C9F90A4B1A7842F001021A701A7842F002021A700122064B1A6070BD2483FF1F4C82FF1F84C5FF1F976400407765004080E200E008B5074B9B6823B9C0
:40194000FFF776FF0122044B9A6000F0C5F8FFF78DFF024B1B7808BD2483FF1F6B64004008B500F0C7F808BD044B1B7803F0FF020BB90028F8D01046704700BF6B64004052
:40198000C0F10100034B33F91030034A1088181A00B2704784C5FF1F8CC5FF1F704700BF08B50A280FD00C2802D0082806D102E04FF4805209E04FF4807206E00020FFF703
:4019C000F7F8002201E04FF480620021094B198042F2107303FB02F303F6C413064A82FB0302DB17C3EBE223044A1360044B198008BD00BF8AC5FF1FAD8BDB6890C5FF1F49
:401A00008CC5FF1F10B500F043F90446184A137843F0010313701032137843F00103137002F5AA520832137843F0030313701822104B1A70013B1A7842F040021A701A78DD
:401A400002F0FC021A70C822053B1A700222A3F597530C3B1A70084A137843F0080313700A20FFF7A7F8204600F016F910BD00BFAB43004006590040275B004010B50446D5
:401A80000A280DD00C2802D0082804D101E0C22207E0422205E00020FFF78AF8C22200E08222034B1A702046FFF77AFF10BD00BF0259004008B5064A137843F006031370EC
:401AC0000C20FFF7DBFF0022024B1A8008BD00BF0159004088C5FF1F08B5054B1B7823B9FFF7E8FF0122024B1A70FFF78BFF08BD3083FF1F024A137843F0010313707047A7
:401B000000590040F0B583B016461F460B4C012525700023019300932B460A4601462846FEF7E8FF3A4631462078FEF7BDFF02212078FEF7A7FF207803B0F0BD4E82FF1F49
:401B4000F0B583B016461F460B4D00242C700194009423460A4601462046FEF7CBFF3A4631462878FEF7A0FF02212878FEF78AFF287803B0F0BD00BF4F82FF1F014B1B687D
:401B80001864704708ED00E04001C0B2014B1870704700BF00E400E07222084B1A702022A3F580731A7006225A3B1A70472210331A70002250331A70704700BF8865004045
:401BC00010B500F065F804460A4A137843F020031370A2F58072137843F0100313700632137843F01003137000F032F8204600F053F810BD9865004008B5054B1B7823B927
:401C0000FFF7CAFF0122024B1A70FFF7D9FF08BD3183FF1F034B1B7813F0040FFAD1024B187070476E6400404A64004038B5074B1B782BB938BDFFF7EDFF0134A4B201E03F
:401C400005460024285D0028F5D138BD3183FF1F054A137843F0020313701032137843F002031370704700BFA2430040024B1878C0F3C000704700BF0151004000000000AB
:401C80000230800803D000BF01380046FCD17047EFF3108072B6704780F31088704700BF18484FF47F0102680A43026016486FF07F4102680A400260704714484FF0805111
:401CC0000160704772B611484FF000610160FFF771FB0F48006800F0C3F858B10C4800684FF080730B4A0C490FB40FB46FF00600004700BF6FF0060062B6004762B600DF31
:401D000008B0704720ED00E01CED00E004ED00E04483FF1F411D0000FD1C0000EFF30880054908600548006880F3088870470248006880F3088870475082FF1F3C82FF1F6A
:401D4000411C8900154A11440968154A136899421AD0F0B444464D4656465F46F0B400B5104C9B002344EFF308851D60116089002144096881F3088802BC8E46F0BCA0461C
:401D8000A946B246BB46F0BC002806DB00B500F05BF802BC8E46FFF7D3BF7047A42300001C83FF1F4082FF1FF0B444464D4656465F46F0B400B5EFF3038308B480001749FA
:401DC00001440968164A0244EFF30883136088471448804704BC4FF08070024382F3038801BC8646F0BCA046A946B246BB46F0BC704780000A4901440A6882F3088804BCCC
:401E00004FF08070024382F3038808BC9E46F0BCA046A946B246BB46F0BC70477C2300005CA3FF1F291E000008B572B6014B1868FFF7DFFFF081FF1F08B5024B1868FFF712
:401E4000B3FF08BDF081FF1F08B562B6FFF7F4FF72B600F041F8014B186808BD4483FF1F00280BDA20F000400130054B53F82000044B1B68181A18BF012070470120704703
:401E8000A42300001C83FF1F054B53F82020054B53F820309A4201D101207047002070475C81FF1F3423000008B5FFF7C1FA084B53F8203043B10022054B43F8202040F0BC
:401EC0000040044B186008BD024B186008BD00BFD482FF1F4483FF1F38B5364B1C680022354B1A60354A52F82430013342F82430334B53F824502046FFF7C6FF012801D02F
:401F0000A54204D103222F4B43F8242003E002222C4B43F824202C4B53F824102B4A136823EA010313602A4B53F82440214B1C60B5F1FF3F0FD0234B53F82530032B07D17D
:401F40000222204B43F825200022224B43F825202846FFF7D3FAFFF7AFFAB0F1FF3F0BD1B4F1FF3F03D00022164B43F8242044F00044194B1C6038BD184B53F82020134B67
:401F80001B689A4208D800220E4B43F8242044F00044114B1C6038BD00210A4A42F82010094A52F820201343084A1360FFF77CFF38BD00BFF081FF1F3483FF1F5C81FF1F48
:401FC0002081FF1F0882FF1F482300001883FF1FF481FF1FFC82FF1F4483FF1F68230000014B1868704700BFB482FF1F0E4B70B51E460E4C0025E41AA410A54204D056F805
:40200000253098470135F8E700F018FA084B094C1E46E41AA4100025A54204D056F8253098470135F8E770BD4824000048240000482400005024000010B5431E0A449142F4
:4020400004D011F8014B03F8014FF8E710BD03460244934202D003F8011BFAE77047000000000000454141204C61622041737369676E656D6E74202D20310A005468652043
:4020800073797374656D20686173206265656E2072657365742064756520746F205761746368446F672054696D65722121210A005468652073797374656D2068617320623E
:4020C00065656E207265736574207468726F75676820506F776572206F6E2121210A0000150400000100000001000000890200000A0000008104000064000000A50300006C
:4021000002000000010002000000000095050000000000000000000000000000000000000000000000000000000000000000000000000000B105000000000000000000004A
:4021400000000000000000000000000000000000000000000000000000000000000000000200000000000000010000008021000000000000000000000000000000000000BB
:4021800002000000C505000000000000010000000000000001000000AC2100000000000000000000000000000000000003000000105100401000305100404000F05100404E
:4021C000100000000140001000140140000800400140000A004C01400002005001402000FF00010102020202030303030303030304040404040404040404040404040404F5
:40220000050505050505050505050505050505050505050505050505050505050505050506060606060606060606060606060606060606060606060606060606060606063E
:4022400006060606060606060606060606060606060606060606060606060606060606060707070707070707070707070707070707070707070707070707070707070707BE
:40228000070707070707070707070707070707070707070707070707070707070707070707070707070707070707070707070707070707070707070707070707070707075E
:4022C000070707070707070707070707070707070707070707070707070707070707070701000000E82200000000000001000000020000000400000000000000FFFFFFFFF0
:402300000000000000000000000000000000000000000000102700000100000000000000000000000000000001000000010000000000000001000000010000000100000060
:4023400001000000010000008000000001000000200000001000000004000000010000000200000004000000010000000100000020000000100000000400000071010000F7
:4023800051010000490300001D03000095030000391E0000391E0000391E0000391E0000391E0000000000000000000000000000010000000200000000000000616C726D65
:4023C0005F316D730000000065765F6F6E5F4A6F79737469636B5570646174650000000065765F6F6E5F537065656455706461746500000065765F316D73000074736B5F7E
:40240000696E69740000000074736B5F6261636B67726F756E64000074736B5F696F000074736B5F636F6E74726F6C0074736B5F73797374656D000043000000F8B500BFD7
:40244000F8BC08BC9E4670474D00000085090000F8B500BFF8BC08BC9E4670472900000070240000C880FF1FF0010000E04200000000000000000000000000008421000014
:402480000000000000000000582100000000000000000000302100000000000000000000082100007F800000030000000000E02EC05D00001800000000366E01BC23000060
:4024C00000000000FFFFFFFFFFFFFFFFFFFFFFFFFFFFFFFFFFFFFFFFFFFFFFFF01000000020000000300000004000000FFFFFFFF00000000000000000500000004000000E5
:40250000020000000100000001000000010000000100000001000000FFFFFFFFFFFFFFFFFFFFFFFFFFFFFFFFFFFFFFFFFFFFFFFFFFFFFFFFFFFFFFFFFFFFFFFFFFFFFFFFBC
:40254000FFFFFFFFFFFFFFFFFFFFFFFFFFFFFFFFFFFFFFFFFFFFFFFFFFFFFFFFFFFFFFFFFFFFFFFFFFFFFFFFFFFFFFFFFFFFFFFFFFFFFFFFFFFFFFFFFFFFFFFFFFFFFFFF9B
:40258000FFFFFFFFFFFFFFFFFFFFFFFFFFFFFFFFFFFFFFFFFFFFFFFFFFFFFFFFFFFFFFFFFFFFFFFFFFFFFFFFFFFFFFFFFFFFFFFF030000000300000003000000030000003F
:4025C00003000000C8230000E0230000F4230000FC2300000824000018240000202400002C24000084C5FF1F0000000020A3FF1F5CC3FF1FFFFFFFFF000000000000000037
:40260000000000000000000000000000000000000000000000000000000000003824000000000000000000000000000000000000000000000000000000000000000000003E
:40264000000000000000000000000000000000000000000000000000000000005482FF1F000000000000000000000000000000000000000000000000000000000000000066
:40268000000000000000000000000000000000000000000000000000000000000000000000000000000000000000000000000000000000000000000000000000000000001A
:4026C00000000000000000000000000000000000000000000000000000000000000000000000000000000000000000000000000000000000000000000000000000000000DA
:402700000000000000000000000000000000000000000000000000000000000000000000000000000000000000000000000000000000000000000000000000000000000099
:402740000000000000000000000000000000000000000000000000000000000000000000000000000000000000000000000000000000000000000000000000000000000059
:020000040003F7
:0200000480007A
:400000000145004004520040015B00400464004001650040010501401A060140390701402A080140410901403B0A0140390B0140390C01403D0D0140260E01402C0F014086
:4000400007150140231601404217014033180140401901402F1A0140381B0140084001400641014007420140084301400244014003450140084601400547014003480140EC
:4000800001490140014C0140064D01400950014002510140030101021110608064402784870188388D0D8E0F8872820100030803100112021403240328032E0330023601DC
:4000C000580459045F0181028B019502B102B301B902BF01D602D73ED804D904DB0DDF0100180410050209080A820D080F4012801380162817801E822040210829022A2025
:400100002B102D022E20325033043602378039903A083B013C103E083F605B046040684269106A0C730679208240830186408A048B048D428E808F80A601C056C23DC4E9BF
:40014000CAA7CC9ECE7FD602D801DE04E211E401EE0402080320070409040A040D081208131017031A011B081D011E0421202401274029102E0230083204337C34033501FD
:40018000370239083E053F0454185804590C5B045C095D105F019B01B501D608D804D904DB04DD90DF0103490420064009100A200D020E0911011320140217041E081F058D
:4001C000221024082508264027242B082D292F083108322033413666381039413B803C103D603E063F205A405C016002670A7D80818083408A068C848D408E108F20954144
:4002000097809C809D209F61A540A710C05BC2D6C4AACAE4CCFFCEFDD688D838DE10E080E251E420E610EE040203040C0523067107040B080CDC0D0A0E220F241410152362
:4002400016AC170C18091AD01C101D031E401F042110241429402A202B05301F3110330F34E0356039203A203B083F014036410245EB460C480749FF4AFF4BFF4EF04F448E
:40028000500C580459045A045C115D015F0166C06A406B02D401D804D904DB0CDF01004401020520076109080B060F20102815411804190220802118230429122D202F402D
:4002C000308031083761384439203D013F2040044108482849104A8450805C807D808440904093029404952197809D209F61A204A480A508A680A710B610C0FDC227C496D9
:40030000CAA5CCBACEAED006D204D610DE10E002580459045F01800885018601870E8B0C8D0C8F0392029501960D97069B039D10A308AB20AF20B008B10FB201B310B40247
:40034000B520B604BB02BF14C060C104C5D0C612C80EC9FFCAFFCBFFCDA0CF04D018D280D405D804D904DA04DB04DC12DD22DF01E040E2C0E440E540E6C0E8C0EAC0ECC096
:40038000EEC003A0052007610B600F20128013021501160219101A501BA020C02204230829122A402B022D202E022F403020310832803761384439203D213F2043024911AF
:4003C0005240531059015A405B0873409302940495019608978099029D209F63A020A204A4C0A518A710A880AB10C0FCC22CC490CAADCCBECEAED001D204D60B04030C02F3
:400400000F01140315011B011F01250126013203370138083E043F404003454049FF4A074BFF4C404D204EF04F0550085401580459045A045B045D115F01604061A8624016
:400440006320D804D904DF0100C4012805200720084209180BC40C600E080F601021111113201401150118102240284229282D202F4030A13108330134403761384039113E
:400480003B043D214010482049024B025A885B12C067C2BFC49FCAAFCCBFCEAFD002D60FA804AC04AE08B440E810EC01EE02580459045F018202860487028A018C04904047
:4004C000928094109620970498089E08A002A301A401A820AA10AC80AE40B0FFB104B302B701BA20BE01D203D302D804D904DB04DC01DF0100980102028005020720090863
:400500000AA70B600D080E010F42100211101201130614801501160818482010224123202A092B012F103294348035023780381039013B443C103E093F406B0589108A2100
:400540008B019110920C93049410952096A2974099029B829E289F04A042A108A404A810AD08AE02B040B702C03FC2BFC45FCA4BCC9ECEFFE802EC41053F093F0D011524BE
:4005800017521D101FA826012D0A2F5431C032013301350637383F014023410542044401450E460C480549FF4AFF4BFF4C624DA04EF04F41500C56025711580459045A041E
:4005C0005B045C105D115F016640670269106A306B106D106E106F12D804D904DF010101030904100504070109980DA81140154016101D041F082504268427442B082D80F5
:4006000031883301340436803704381039413E54450647604A014B404C104F4056405E206E5476268961901091409421950196019A109B019D089E40A198A542A708AB109B
:40064000AF01B212B660C0EBC2E7C4A1CA14CC5BCE7DD0F0D210D620E4A0E810EC60580459045F0181088201841885048808890C8C018DFF8E809439964497F3990F9A0678
:400680009BF09C7F9DC3A1F3A30CA439A51CA642A7E3A867A982AA18AC10AD41B080B11CB220B30FB41FB52CB640B7C0B880BA20BB28BE04D804D904DC11DF01010103093E
:4006C0000581062C082809980E0A0F101140160217241D011E211F10240125022628272428282C842D802F1031A0330936A439403B303E2A3F40808082088980914193404F
:400700009401960198049A269B019D809F20A1B8A285A308A502A610AA01AF08B508C0FBC2E7C4E1CAF6CC7FCEF8E8501080168032403B023E80C430CC10CE6050045810B3
:4007400096809702A080D4A080049408968097029C10A080E68084108E4096809C10A080AB01E640EE207D80DE046204A540D8021B0425028540A540B604C608C801EC08D8
:4007800044028102A102AB04D0042408B480C820B4049C0211018901B402C408E601E808000701010A010C030D010E0710031A031C030003100A0000084040000003030077
:4007C0008000408080008000000000000010100010000000000100000000000000000000000000000000000000000000000000000000000000000000000000000000000088
:4008000000000000000000000000000000000000000000000000000000000000000000000000000000000000000000000000000000000000000000000000000000000000B8
:400840000000000000000000000000000000000000000000000000000000000000000000000000000000000000000000000000000000000000000000000000000000000078
:400880000000000000000000000000000000000000000000000000000000000000000000000000000000000000000000000000000000000000000000000000000000000038
:4008C00000000000000000000000000000000000000000000000000000000000000000000000000000000000000000000000000000000000000000000000000000000000F8
:0200000490006A
:0400000000004007B5
:0200000490105A
:04000000BC90ACAF55
:0200000490303A
:02000000C0EF4F
:0200000490402A
:4000000000000000000000000000000000000000000000000000000000000000000000000000000000000000000000000000000000000000000000000000000000000000C0
:400040000000000000000000000000000000000000000000000000000000000000000000000000000000000000000000000000000000000000000000000000000000000080
:400080000000000000000000000000000000000000000000000000000000000000000000000000000000000000000000000000000000000000000000000000000000000040
:4000C0000000000000000000000000000000000000000000000000000000000000000000000000000000000000000000000000000000000000000000000000000000000000
:0200000490501A
:0C00000000012E16106900012E25D158B9
:00000001FF